                                                            ZZ203S       0636150081450009845251223475                                                      20161129               
                                                            203B S       0275665035295004266250530150                                                      20161129               
9999900000NON-METRO                                         203B S01370000275665035295004266250530150AK013ALASKA                    ALEUTIANS EAST 201611292017010102140002013    
9999900000NON-METRO                                         203B H02390000385250049320005961500740850AK016ALASKA                    ALEUTIANS WEST 201611292014010103350002013    
1126000000ANCHORAGE, AK                                     203B H03450000396750050790006139500763000AK020ALASKA                    ANCHORAGE MUNIC201611292017010103450002016    
9999900000NON-METRO                                         203B S02070000275665035295004266250530150AK050ALASKA                    BETHEL CENSUS A201611292017010102080002015    
9999900000NON-METRO                                         203B H02290000313950040190004858000603750AK060ALASKA                    BRISTOL BAY BOR201611292016010102730002015    
9999900000NON-METRO                                         203B H02190000297850038130004609000572800AK068ALASKA                    DENALI BOROUGH 201611292014010102590002013    
9999900000NON-METRO                                         203B S02220000275665035295004266250530150AK070ALASKA                    DILLINGHAM CENS201611292017010102220002016    
2182000000FAIRBANKS, AK                                     203B S02310000275665035295004266250530150AK090ALASKA                    FAIRBANKS NORTH201611292017010102390002013    
9999900000NON-METRO                                         203B H01690000284050036360004395500546250AK100ALASKA                    HAINES BOROUGH 201611292013010102470002012    
9999900000NON-METRO                                         203B H02450000281750036070004360000541800AK105ALASKA                    HOONAH-ANGOON C201611292017010102450002016    
2794000000JUNEAU, AK                                        203B H03700000425500054470006584500818250AK110ALASKA                    JUNEAU CITY AND201611292017010103700002016    
9999900000NON-METRO                                         203B S02190000275665035295004266250530150AK122ALASKA                    KENAI PENINSULA201611292017010102190002016    
2854000000KETCHIKAN, AK                                     203B H02830000325450041660005036000625850AK130ALASKA                    KETCHIKAN GATEW201611292017010102830002016    
9999900000NON-METRO                                         203B H03200000381800048875005908000734250AK150ALASKA                    KODIAK ISLAND B201611292014010103320002013    
9999900000NON-METRO                                         203B S01340000275665035295004266250530150AK158ALASKA                    KUSILVAK CENSUS201611212017010101610002013    
9999900000NON-METRO                                         203B S01640000275665035295004266250530150AK164ALASKA                    LAKE AND PENINS201611292017010101640002016    
1126000000ANCHORAGE, AK                                     203B H03450000396750050790006139500763000AK170ALASKA                    MATANUSKA-SUSIT201611292017010103450002016    
9999900000NON-METRO                                         203B H03070000353050045195005463000678950AK180ALASKA                    NOME CENSUS ARE201611292017010103070002016    
9999900000NON-METRO                                         203B H01710000332350042545005143000639150AK185ALASKA                    NORTH SLOPE BOR201611292014010102890002013    
9999900000NON-METRO                                         203B S02040000275665035295004266250530150AK188ALASKA                    NORTHWEST ARCTI201611292017010102040002016    
9999900000NON-METRO                                         203B H02520000332350042545005143000639150AK195ALASKA                    PETERSBURG CENS201611292014010102890002013    
9999900000NON-METRO                                         203B S01820000275665035295004266250530150AK198ALASKA                    PRINCE OF WALES201611292017010102250002013    
9999900000NON-METRO                                         203B H03490000451950057855006993500869150AK220ALASKA                    SITKA CITY AND 201611292015010103930002014    
9999900000NON-METRO                                         203B H03610000415150053145006424000798350AK230ALASKA                    SKAGWAY MUNICIP201611292017010103610002016    
9999900000NON-METRO                                         203B S02280000275665035295004266250530150AK240ALASKA                    SOUTHEAST FAIRB201611292017010102280002016    
9999900000NON-METRO                                         203B H02160000293250037540004537500563950AK261ALASKA                    VALDEZ-CORDOVA 201611292014010102550002013    
9999900000NON-METRO                                         203B H01870000332350042545005143000639150AK275ALASKA                    WRANGELL CITY A201611292014010102890002013    
9999900000NON-METRO                                         203B H01560000420900053880006513000809450AK282ALASKA                    YAKUTAT CITY AN201611292014010103660002013    
9999900000NON-METRO                                         203B S01130000275665035295004266250530150AK290ALASKA                    YUKON-KOYUKUK C201611292017010101170002015    
3386000000MONTGOMERY, AL                                    203B S01470000275665035295004266250530150AL001ALABAMA                   AUTAUGA        201611292017010101720002011    
1930000000DAPHNE-FAIRHOPE-FOLEY, AL                         203B S01710000275665035295004266250530150AL003ALABAMA                   BALDWIN        201611292017010101950002008    
9999900000NON-METRO                                         203B S00920000275665035295004266250530150AL005ALABAMA                   BARBOUR        201611292016112901260002010    
1382000000BIRMINGHAM-HOOVER, AL                             203B S01870000275665035295004266250530150AL007ALABAMA                   BIBB           201611292017010101870002015    
1382000000BIRMINGHAM-HOOVER, AL                             203B S01870000275665035295004266250530150AL009ALABAMA                   BLOUNT         201611292017010101870002015    
9999900000NON-METRO                                         203B S00710000275665035295004266250530150AL011ALABAMA                   BULLOCK        201611292017010100760002010    
9999900000NON-METRO                                         203B S00780000275665035295004266250530150AL013ALABAMA                   BUTLER         201611292017010100810002010    
1150000000ANNISTON-OXFORD-JACKSONVILLE, AL                  203B S01130000275665035295004266250530150AL015ALABAMA                   CALHOUN        201611292017010101140002014    
4674000000VALLEY, AL                                        203B S00560000275665035295004266250530150AL017ALABAMA                   CHAMBERS       201611292017010100980002010    
9999900000NON-METRO                                         203B S00980000275665035295004266250530150AL019ALABAMA                   CHEROKEE       201611292017010101090002010    
1382000000BIRMINGHAM-HOOVER, AL                             203B S01870000275665035295004266250530150AL021ALABAMA                   CHILTON        201611292017010101870002015    
9999900000NON-METRO                                         203B S00610000275665035295004266250530150AL023ALABAMA                   CHOCTAW        201611292017010100840002010    
9999900000NON-METRO                                         203B S00870000275665035295004266250530150AL025ALABAMA                   CLARKE         201611292017010101130002010    
9999900000NON-METRO                                         203B S00530000275665035295004266250530150AL027ALABAMA                   CLAY           201611292017010100870002010    
9999900000NON-METRO                                         203B S01040000275665035295004266250530150AL029ALABAMA                   CLEBURNE       201611292017010101070002010    
2146000000ENTERPRISE, AL                                    203B S01230000275665035295004266250530150AL031ALABAMA                   COFFEE         201611292017010101360002014    
2252000000FLORENCE-MUSCLE SHOALS, AL                        203B S01540000275665035295004266250530150AL033ALABAMA                   COLBERT        201611292017010101540002015    
9999900000NON-METRO                                         203B S00680000275665035295004266250530150AL035ALABAMA                   CONECUH        201611292017010100780002010    
4518000000TALLADEGA-SYLACAUGA, AL                           203B S01010000275665035295004266250530150AL037ALABAMA                   COOSA          201611292017010101470002012    
9999900000NON-METRO                                         203B S00740000275665035295004266250530150AL039ALABAMA                   COVINGTON      201611292017010100820002009    
9999900000NON-METRO                                         203B S00700000275665035295004266250530150AL041ALABAMA                   CRENSHAW       201611292017010100720002015    
1898000000CULLMAN, AL                                       203B S00960000275665035295004266250530150AL043ALABAMA                   CULLMAN        201611292017010101140002008    
3712000000OZARK, AL                                         203B S00690000275665035295004266250530150AL045ALABAMA                   DALE           201611292016112901180002013    
4282000000SELMA, AL                                         203B S00820000275665035295004266250530150AL047ALABAMA                   DALLAS         201611292017010100970002010    
9999900000NON-METRO                                         203B S00970000275665035295004266250530150AL049ALABAMA                   DEKALB         201611292016112901070002014    
3386000000MONTGOMERY, AL                                    203B S01470000275665035295004266250530150AL051ALABAMA                   ELMORE         201611292017010101720002011    
9999900000NON-METRO                                         203B S01020000275665035295004266250530150AL053ALABAMA                   ESCAMBIA       201611292017010101020002016    
2346000000GADSDEN, AL                                       203B S01140000275665035295004266250530150AL055ALABAMA                   ETOWAH         201611292017010101160002009    
9999900000NON-METRO                                         203B S00750000275665035295004266250530150AL057ALABAMA                   FAYETTE        201611292017010101110002010    
9999900000NON-METRO                                         203B S00610000275665035295004266250530150AL059ALABAMA                   FRANKLIN       201611292017010100920002010    
2002000000DOTHAN, AL                                        203B S01190000275665035295004266250530150AL061ALABAMA                   GENEVA         201611292017010101820002009    
9999900000NON-METRO                                         203B S00710000275665035295004266250530150AL063ALABAMA                   GREENE         201611292016112901570002008    
4622000000TUSCALOOSA, AL                                    203B H02870000331200042400005125000636900AL065ALABAMA                   HALE           201611292016010102880002015    
2002000000DOTHAN, AL                                        203B S01190000275665035295004266250530150AL067ALABAMA                   HENRY          201611292017010101820002009    
2002000000DOTHAN, AL                                        203B S01190000275665035295004266250530150AL069ALABAMA                   HOUSTON        201611292017010101820002009    
4246000000SCOTTSBORO, AL                                    203B S01040000275665035295004266250530150AL071ALABAMA                   JACKSON        201611292017010101040002016    
1382000000BIRMINGHAM-HOOVER, AL                             203B S01870000275665035295004266250530150AL073ALABAMA                   JEFFERSON      201611292017010101870002015    
9999900000NON-METRO                                         203B S00690000275665035295004266250530150AL075ALABAMA                   LAMAR          201611292017010100960002010    
2252000000FLORENCE-MUSCLE SHOALS, AL                        203B S01540000275665035295004266250530150AL077ALABAMA                   LAUDERDALE     201611292017010101540002015    
1946000000DECATUR, AL                                       203B S01010000275665035295004266250530150AL079ALABAMA                   LAWRENCE       201611292017010101560002015    
1222000000AUBURN-OPELIKA, AL                                203B S01450000275665035295004266250530150AL081ALABAMA                   LEE            201611292017010101820002010    
2662000000HUNTSVILLE, AL                                    203B S01590000275665035295004266250530150AL083ALABAMA                   LIMESTONE      201611292017010101950002008    
3386000000MONTGOMERY, AL                                    203B S01470000275665035295004266250530150AL085ALABAMA                   LOWNDES        201611292017010101720002011    
9999900000NON-METRO                                         203B S00760000275665035295004266250530150AL087ALABAMA                   MACON          201611292016112901080002010    
2662000000HUNTSVILLE, AL                                    203B S01590000275665035295004266250530150AL089ALABAMA                   MADISON        201611292017010101950002008    
9999900000NON-METRO                                         203B S00920000275665035295004266250530150AL091ALABAMA                   MARENGO        201611292017010101030002015    
9999900000NON-METRO                                         203B S00710000275665035295004266250530150AL093ALABAMA                   MARION         201611292017010100990002015    
1070000000ALBERTVILLE, AL                                   203B S00940000275665035295004266250530150AL095ALABAMA                   MARSHALL       201611292017010101010002009    
3366000000MOBILE, AL                                        203B S01000000275665035295004266250530150AL097ALABAMA                   MOBILE         201611292017010101450002008    
9999900000NON-METRO                                         203B S00460000275665035295004266250530150AL099ALABAMA                   MONROE         201611292017010101070002010    
3386000000MONTGOMERY, AL                                    203B S01470000275665035295004266250530150AL101ALABAMA                   MONTGOMERY     201611292017010101720002011    
1946000000DECATUR, AL                                       203B S01010000275665035295004266250530150AL103ALABAMA                   MORGAN         201611292017010101560002015    
9999900000NON-METRO                                         203B S00760000275665035295004266250530150AL105ALABAMA                   PERRY          201611292017010100760002016    
4622000000TUSCALOOSA, AL                                    203B H02870000331200042400005125000636900AL107ALABAMA                   PICKENS        201611292016010102880002015    
4598000000TROY, AL                                          203B S01050000275665035295004266250530150AL109ALABAMA                   PIKE           201611292017010101120002010    
9999900000NON-METRO                                         203B S00920000275665035295004266250530150AL111ALABAMA                   RANDOLPH       201611292017010100920002016    
1798000000COLUMBUS, GA-AL                                   203B H01870000289800037100004484500557300AL113ALABAMA                   RUSSELL        201611292010010102520002009    
1382000000BIRMINGHAM-HOOVER, AL                             203B S01870000275665035295004266250530150AL115ALABAMA                   ST. CLAIR      201611292017010101870002015    
1382000000BIRMINGHAM-HOOVER, AL                             203B S01870000275665035295004266250530150AL117ALABAMA                   SHELBY         201611292017010101870002015    
9999900000NON-METRO                                         203B S00750000275665035295004266250530150AL119ALABAMA                   SUMTER         201611292017010100760002010    
4518000000TALLADEGA-SYLACAUGA, AL                           203B S01010000275665035295004266250530150AL121ALABAMA                   TALLADEGA      201611292017010101580002009    
9999900000NON-METRO                                         203B S01950000275665035295004266250530150AL123ALABAMA                   TALLAPOOSA     201611292016112901950002016    
4622000000TUSCALOOSA, AL                                    203B H02870000331200042400005125000636900AL125ALABAMA                   TUSCALOOSA     201611292016010102880002015    
1382000000BIRMINGHAM-HOOVER, AL                             203B S01870000275665035295004266250530150AL127ALABAMA                   WALKER         201611292017010101870002015    
9999900000NON-METRO                                         203B S00890000275665035295004266250530150AL129ALABAMA                   WASHINGTON     201611292017010101050002010    
9999900000NON-METRO                                         203B S00750000275665035295004266250530150AL131ALABAMA                   WILCOX         201611292017010100940002010    
9999900000NON-METRO                                         203B S00790000275665035295004266250530150AL133ALABAMA                   WINSTON        201611292017010100880002009    
9999900000NON-METRO                                         203B S00610000275665035295004266250530150AR001ARKANSAS                  ARKANSAS       201611292017010100830002014    
9999900000NON-METRO                                         203B S00500000275665035295004266250530150AR003ARKANSAS                  ASHLEY         201611292017010100790002013    
3426000000MOUNTAIN HOME, AR                                 203B S00900000275665035295004266250530150AR005ARKANSAS                  BAXTER         201611292017010101230002014    
2222000000FAYETTEVILLE-SPRINGDALE-ROGERS, AR-MO             203B S01700000275665035295004266250530150AR007ARKANSAS                  BENTON         201611292017010101740002009    
2546000000HARRISON, AR                                      203B S01000000275665035295004266250530150AR009ARKANSAS                  BOONE          201611292017010101050002015    
9999900000NON-METRO                                         203B S00450000275665035295004266250530150AR011ARKANSAS                  BRADLEY        201611292017010100640002008    
1578000000CAMDEN, AR                                        203B S00700000275665035295004266250530150AR013ARKANSAS                  CALHOUN        201611292017010101730002009    
9999900000NON-METRO                                         203B S01120000275665035295004266250530150AR015ARKANSAS                  CARROLL        201611292017010101380002010    
9999900000NON-METRO                                         203B S00570000275665035295004266250530150AR017ARKANSAS                  CHICOT         201611292017010101190002008    
1166000000ARKADELPHIA, AR                                   203B S00680000275665035295004266250530150AR019ARKANSAS                  CLARK          201611292017010100950002008    
9999900000NON-METRO                                         203B S00430000275665035295004266250530150AR021ARKANSAS                  CLAY           201611292017010100720002014    
9999900000NON-METRO                                         203B S01180000275665035295004266250530150AR023ARKANSAS                  CLEBURNE       201611292017010101180002016    
3822000000PINE BLUFF, AR                                    203B S00740000275665035295004266250530150AR025ARKANSAS                  CLEVELAND      201611292017010100940002009    
3162000000MAGNOLIA, AR                                      203B S00740000275665035295004266250530150AR027ARKANSAS                  COLUMBIA       201611292017010101100002009    
9999900000NON-METRO                                         203B S00660000275665035295004266250530150AR029ARKANSAS                  CONWAY         201611292017010101020002009    
2786000000JONESBORO, AR                                     203B S01330000275665035295004266250530150AR031ARKANSAS                  CRAIGHEAD      201611292017010101330002016    
2290000000FORT SMITH, AR-OK                                 203B S01080000275665035295004266250530150AR033ARKANSAS                  CRAWFORD       201611292017010101170002009    
3282000000MEMPHIS, TN-MS-AR                                 203B S01710000275665035295004266250530150AR035ARKANSAS                  CRITTENDEN     201611292017010101760002008    
9999900000NON-METRO                                         203B S00850000275665035295004266250530150AR037ARKANSAS                  CROSS          201611292017010100990002008    
9999900000NON-METRO                                         203B S00380000275665035295004266250530150AR039ARKANSAS                  DALLAS         201611292017010100830002008    
9999900000NON-METRO                                         203B S00370000275665035295004266250530150AR041ARKANSAS                  DESHA          201611292017010100570002012    
9999900000NON-METRO                                         203B S00920000275665035295004266250530150AR043ARKANSAS                  DREW           201611292017010100920002016    
3078000000LITTLE ROCK-NORTH LITTLE ROCK-CONWAY, A           203B S01550000275665035295004266250530150AR045ARKANSAS                  FAULKNER       201611292017010101680002009    
9999900000NON-METRO                                         203B S01240000275665035295004266250530150AR047ARKANSAS                  FRANKLIN       201611292016112901240002016    
9999900000NON-METRO                                         203B S00920000275665035295004266250530150AR049ARKANSAS                  FULTON         201611292017010101000002014    
2630000000HOT SPRINGS, AR                                   203B S01210000275665035295004266250530150AR051ARKANSAS                  GARLAND        201611292017010101360002008    
3078000000LITTLE ROCK-NORTH LITTLE ROCK-CONWAY, A           203B S01550000275665035295004266250530150AR053ARKANSAS                  GRANT          201611292017010101680002009    
3750000000PARAGOULD, AR                                     203B S01000000275665035295004266250530150AR055ARKANSAS                  GREENE         201611292017010101000002016    
9999900000NON-METRO                                         203B S00630000275665035295004266250530150AR057ARKANSAS                  HEMPSTEAD      201611292016112900700002011    
3168000000MALVERN, AR                                       203B S00890000275665035295004266250530150AR059ARKANSAS                  HOT SPRING     201611292016112900910002013    
9999900000NON-METRO                                         203B S00810000275665035295004266250530150AR061ARKANSAS                  HOWARD         201611292017010100810002016    
1290000000BATESVILLE, AR                                    203B S00750000275665035295004266250530150AR063ARKANSAS                  INDEPENDENCE   201611292017010100970002008    
9999900000NON-METRO                                         203B S00780000275665035295004266250530150AR065ARKANSAS                  IZARD          201611292017010100780002011    
9999900000NON-METRO                                         203B S00460000275665035295004266250530150AR067ARKANSAS                  JACKSON        201611292017010100660002008    
3822000000PINE BLUFF, AR                                    203B S00740000275665035295004266250530150AR069ARKANSAS                  JEFFERSON      201611292017010100940002009    
9999900000NON-METRO                                         203B S00790000275665035295004266250530150AR071ARKANSAS                  JOHNSON        201611292017010100900002015    
9999900000NON-METRO                                         203B S00300000275665035295004266250530150AR073ARKANSAS                  LAFAYETTE      201611292017010100640002012    
9999900000NON-METRO                                         203B S00400000275665035295004266250530150AR075ARKANSAS                  LAWRENCE       201611292017010100580002008    
9999900000NON-METRO                                         203B S00430000275665035295004266250530150AR077ARKANSAS                  LEE            201611292017010100540002014    
3822000000PINE BLUFF, AR                                    203B S00740000275665035295004266250530150AR079ARKANSAS                  LINCOLN        201611292017010100940002009    
4550000000TEXARKANA, TX-AR                                  203B S01290000275665035295004266250530150AR081ARKANSAS                  LITTLE RIVER   201611292017010101370002014    
9999900000NON-METRO                                         203B S00600000275665035295004266250530150AR083ARKANSAS                  LOGAN          201611292017010100840002015    
3078000000LITTLE ROCK-NORTH LITTLE ROCK-CONWAY, A           203B S01550000275665035295004266250530150AR085ARKANSAS                  LONOKE         201611292017010101680002009    
2222000000FAYETTEVILLE-SPRINGDALE-ROGERS, AR-MO             203B S01700000275665035295004266250530150AR087ARKANSAS                  MADISON        201611292017010101740002009    
9999900000NON-METRO                                         203B S01000000275665035295004266250530150AR089ARKANSAS                  MARION         201611292017010101000002016    
4550000000TEXARKANA, TX-AR                                  203B S01290000275665035295004266250530150AR091ARKANSAS                  MILLER         201611292017010101370002014    
1418000000BLYTHEVILLE, AR                                   203B S00400000275665035295004266250530150AR093ARKANSAS                  MISSISSIPPI    201611292017010100900002011    
9999900000NON-METRO                                         203B S00360000275665035295004266250530150AR095ARKANSAS                  MONROE         201611292017010100600002013    
9999900000NON-METRO                                         203B S00520000275665035295004266250530150AR097ARKANSAS                  MONTGOMERY     201611292017010100770002013    
9999900000NON-METRO                                         203B S00220000275665035295004266250530150AR099ARKANSAS                  NEVADA         201611292016112900700002011    
2546000000HARRISON, AR                                      203B S01000000275665035295004266250530150AR101ARKANSAS                  NEWTON         201611292017010101050002015    
1578000000CAMDEN, AR                                        203B S00700000275665035295004266250530150AR103ARKANSAS                  OUACHITA       201611292017010101730002009    
3078000000LITTLE ROCK-NORTH LITTLE ROCK-CONWAY, A           203B S01550000275665035295004266250530150AR105ARKANSAS                  PERRY          201611292017010101680002009    
2576000000HELENA-WEST HELENA, AR                            203B S00300000275665035295004266250530150AR107ARKANSAS                  PHILLIPS       201611292016112900650002013    
9999900000NON-METRO                                         203B S00550000275665035295004266250530150AR109ARKANSAS                  PIKE           201611292017010100790002014    
2786000000JONESBORO, AR                                     203B S01330000275665035295004266250530150AR111ARKANSAS                  POINSETT       201611292017010101330002016    
9999900000NON-METRO                                         203B S00730000275665035295004266250530150AR113ARKANSAS                  POLK           201611292017010100830002008    
4078000000RUSSELLVILLE, AR                                  203B S01050000275665035295004266250530150AR115ARKANSAS                  POPE           201611292017010101110002013    
9999900000NON-METRO                                         203B S00680000275665035295004266250530150AR117ARKANSAS                  PRAIRIE        201611292017010100960002013    
3078000000LITTLE ROCK-NORTH LITTLE ROCK-CONWAY, A           203B S01550000275665035295004266250530150AR119ARKANSAS                  PULASKI        201611292017010101680002009    
9999900000NON-METRO                                         203B S00750000275665035295004266250530150AR121ARKANSAS                  RANDOLPH       201611292017010100750002016    
2262000000FORREST CITY, AR                                  203B S00510000275665035295004266250530150AR123ARKANSAS                  ST. FRANCIS    201611292017010100510002016    
3078000000LITTLE ROCK-NORTH LITTLE ROCK-CONWAY, A           203B S01550000275665035295004266250530150AR125ARKANSAS                  SALINE         201611292017010101680002009    
9999900000NON-METRO                                         203B S00590000275665035295004266250530150AR127ARKANSAS                  SCOTT          201611292017010100640002008    
9999900000NON-METRO                                         203B S00600000275665035295004266250530150AR129ARKANSAS                  SEARCY         201611292017010100680002010    
2290000000FORT SMITH, AR-OK                                 203B S01080000275665035295004266250530150AR131ARKANSAS                  SEBASTIAN      201611292017010101170002009    
9999900000NON-METRO                                         203B S00690000275665035295004266250530150AR133ARKANSAS                  SEVIER         201611292017010100720002008    
9999900000NON-METRO                                         203B S00500000275665035295004266250530150AR135ARKANSAS                  SHARP          201611292017010100630002008    
9999900000NON-METRO                                         203B S00960000275665035295004266250530150AR137ARKANSAS                  STONE          201611292017010100960002013    
2098000000EL DORADO, AR                                     203B S00700000275665035295004266250530150AR139ARKANSAS                  UNION          201611292017010101150002009    
9999900000NON-METRO                                         203B S00630000275665035295004266250530150AR141ARKANSAS                  VAN BUREN      201611292017010100800002009    
2222000000FAYETTEVILLE-SPRINGDALE-ROGERS, AR-MO             203B S01700000275665035295004266250530150AR143ARKANSAS                  WASHINGTON     201611292017010101740002009    
4262000000SEARCY, AR                                        203B S01100000275665035295004266250530150AR145ARKANSAS                  WHITE          201611292017010101190002009    
9999900000NON-METRO                                         203B S00540000275665035295004266250530150AR147ARKANSAS                  WOODRUFF       201611292017010100660002013    
4078000000RUSSELLVILLE, AR                                  203B S01050000275665035295004266250530150AR149ARKANSAS                  YELL           201611292017010101110002013    
9999900000NON-METRO                                         203B S00890000275665035295004266250530150AS010AMERICAN SAMOA            EASTERN DISTRIC201611292017010101220002008    
9999900000NON-METRO                                         203B S00760000275665035295004266250530150AS020AMERICAN SAMOA            MANU'A DISTRICT201611292017010102300002008    
9999900000NON-METRO                                         203B S00900000275665035295004266250530150AS030AMERICAN SAMOA            ROSE ISLAND    201611292017010101280002008    
9999900000NON-METRO                                         203B S00240000275665035295004266250530150AS040AMERICAN SAMOA            SWAINS ISLAND  201611292017010100620002008    
9999900000NON-METRO                                         203B S00920000275665035295004266250530150AS050AMERICAN SAMOA            WESTERN DISTRIC201611292017010101250002008    
9999900000NON-METRO                                         203B S00850000275665035295004266250530150AZ001ARIZONA                   APACHE         201611292017010101500002008    
4342000000SIERRA VISTA-DOUGLAS, AZ                          203B S01170000275665035295004266250530150AZ003ARIZONA                   COCHISE        201611292017010101760002009    
2238000000FLAGSTAFF, AZ                                     203B H02540000362250046375005605500696650AZ005ARIZONA                   COCONINO       201611292014010103150002008    
3774000000PAYSON, AZ                                        203B S01600000275665035295004266250530150AZ007ARIZONA                   GILA           201611292017010101850002008    
4094000000SAFFORD, AZ                                       203B S01420000275665035295004266250530150AZ009ARIZONA                   GRAHAM         201611292017010101630002008    
9999900000NON-METRO                                         203B S00500000275665035295004266250530150AZ011ARIZONA                   GREENLEE       201611292016112901630002008    
9999900000NON-METRO                                         203B S00680000275665035295004266250530150AZ012ARIZONA                   LA PAZ         201611292017010100910002009    
3806000000PHOENIX-MESA-SCOTTSDALE, AZ                       203B H02430000279450035775004324000537400AZ013ARIZONA                   MARICOPA       201611292017010102430002016    
2942000000LAKE HAVASU CITY-KINGMAN, AZ                      203B S01320000275665035295004266250530150AZ015ARIZONA                   MOHAVE         201611292017010101650002008    
4332000000SHOW LOW, AZ                                      203B S01300000275665035295004266250530150AZ017ARIZONA                   NAVAJO         201611292017010101810002008    
4606000000TUCSON, AZ                                        203B S01890000275665035295004266250530150AZ019ARIZONA                   PIMA           201611292017010102080002008    
3806000000PHOENIX-MESA-SCOTTSDALE, AZ                       203B H02430000279450035775004324000537400AZ021ARIZONA                   PINAL          201611292017010102430002016    
3570000000NOGALES, AZ                                       203B S01280000275665035295004266250530150AZ023ARIZONA                   SANTA CRUZ     201611292017010101570002008    
3914000000PRESCOTT, AZ                                      203B S02150000275665035295004266250530150AZ025ARIZONA                   YAVAPAI        201611292017010102180002008    
4974000000YUMA, AZ                                          203B S01250000275665035295004266250530150AZ027ARIZONA                   YUMA           201611292017010101500002008    
4186036084SAN FRANCISCO-OAKLAND-HAYWARD, CA                 203B H12000000636150081450009845251223475CA001CALIFORNIA                ALAMEDA        201611292017010112000002016    
9999900000NON-METRO                                         203B H02600000463450059330007171500891250CA003CALIFORNIA                ALPINE         201611292014010104030002008    
9999900000NON-METRO                                         203B H02450000332350042545005143000639150CA005CALIFORNIA                AMADOR         201611292014010102890002008    
1702000000CHICO, CA                                         203B H02300000293250037540004537500563950CA007CALIFORNIA                BUTTE          201611292014010102550002008    
9999900000NON-METRO                                         203B H02290000373750047845005783500718750CA009CALIFORNIA                CALAVERAS      201611292014010103250002008    
9999900000NON-METRO                                         203B S01960000275665035295004266250530150CA011CALIFORNIA                COLUSA         201611292017010102060002008    
4186036084SAN FRANCISCO-OAKLAND-HAYWARD, CA                 203B H12000000636150081450009845251223475CA013CALIFORNIA                CONTRA COSTA   201611292017010112000002016    
1886000000CRESCENT CITY, CA                                 203B S01750000275665035295004266250530150CA015CALIFORNIA                DEL NORTE      201611292017010102000002008    
4090000000SACRAMENTO--ROSEVILLE--ARDEN-ARCADE, CA           203B H04250000488750062570007563000939900CA017CALIFORNIA                EL DORADO      201611292017010104250002016    
2342000000FRESNO, CA                                        203B H02380000281750036070004360000541800CA019CALIFORNIA                FRESNO         201611292014010102450002008    
9999900000NON-METRO                                         203B S01650000275665035295004266250530150CA021CALIFORNIA                GLENN          201611292017010101970002008    
2170000000EUREKA-ARCATA-FORTUNA, CA                         203B H02660000327750041955005071500630300CA023CALIFORNIA                HUMBOLDT       201611292014010102850002008    
2094000000EL CENTRO, CA                                     203B S01950000275665035295004266250530150CA025CALIFORNIA                IMPERIAL       201611292017010102200002008    
9999900000NON-METRO                                         203B H02540000369150047255005712500709900CA027CALIFORNIA                INYO           201611292014010103210002008    
1254000000BAKERSFIELD, CA                                   203B S02030000275665035295004266250530150CA029CALIFORNIA                KERN           201611292017010102250002008    
2526000000HANFORD-CORCORAN, CA                              203B S02020000275665035295004266250530150CA031CALIFORNIA                KINGS          201611292017010102170002008    
1734000000CLEARLAKE, CA                                     203B S01800000275665035295004266250530150CA033CALIFORNIA                LAKE           201611292017010102100002008    
4500000000SUSANVILLE, CA                                    203B S01450000275665035295004266250530150CA035CALIFORNIA                LASSEN         201611292017010101900002008    
3108031084LOS ANGELES-LONG BEACH-ANAHEIM, CA                203B H07100000636150081450009845251223475CA037CALIFORNIA                LOS ANGELES    201611292017010107100002016    
3146000000MADERA, CA                                        203B S02100000275665035295004266250530150CA039CALIFORNIA                MADERA         201611292017010102200002008    
4186042034SAN FRANCISCO-OAKLAND-HAYWARD, CA                 203B H12000000636150081450009845251223475CA041CALIFORNIA                MARIN          201611292017010112000002016    
9999900000NON-METRO                                         203B H01950000322000041220004982500619250CA043CALIFORNIA                MARIPOSA       201611292014010102800002008    
4638000000UKIAH, CA                                         203B H03120000373750047845005783500718750CA045CALIFORNIA                MENDOCINO      201611292014010103250002008    
3290000000MERCED, CA                                        203B S02190000275665035295004266250530150CA047CALIFORNIA                MERCED         201611292017010102190002016    
9999900000NON-METRO                                         203B S00920000275665035295004266250530150CA049CALIFORNIA                MODOC          201611292017010101510002009    
9999900000NON-METRO                                         203B H03050000529000067720008186001017300CA051CALIFORNIA                MONO           201611292009010104600002008    
4150000000SALINAS, CA                                       203B H05000000575000073610008898001105800CA053CALIFORNIA                MONTEREY       201611292017010105000002016    
3490000000NAPA, CA                                          203B H06000000636150081450009845251223475CA055CALIFORNIA                NAPA           201611292017010106000002016    
4602000000TRUCKEE-GRASS VALLEY, CA                          203B H03620000477250061095007385000917800CA057CALIFORNIA                NEVADA         201611292014010104150002008    
3108011244LOS ANGELES-LONG BEACH-ANAHEIM, CA                203B H07100000636150081450009845251223475CA059CALIFORNIA                ORANGE         201611292017010107100002016    
4090000000SACRAMENTO--ROSEVILLE--ARDEN-ARCADE, CA           203B H04250000488750062570007563000939900CA061CALIFORNIA                PLACER         201611292017010104250002016    
9999900000NON-METRO                                         203B H01950000336950043135005214000648000CA063CALIFORNIA                PLUMAS         201611292014010102930002008    
4014000000RIVERSIDE-SAN BERNARDINO-ONTARIO, CA              203B H03300000379500048580005872500729800CA065CALIFORNIA                RIVERSIDE      201611292017010103300002016    
4090000000SACRAMENTO--ROSEVILLE--ARDEN-ARCADE, CA           203B H04250000488750062570007563000939900CA067CALIFORNIA                SACRAMENTO     201611292017010104250002016    
4194000000SAN JOSE-SUNNYVALE-SANTA CLARA, CA                203B H09250000636150081450009845251223475CA069CALIFORNIA                SAN BENITO     201611292017010109250002016    
4014000000RIVERSIDE-SAN BERNARDINO-ONTARIO, CA              203B H03300000379500048580005872500729800CA071CALIFORNIA                SAN BERNARDINO 201611292017010103300002016    
4174000000SAN DIEGO-CARLSBAD, CA                            203B H05330000612950078470009485001178750CA073CALIFORNIA                SAN DIEGO      201611292017010105330002016    
4186041884SAN FRANCISCO-OAKLAND-HAYWARD, CA                 203B H12000000636150081450009845251223475CA075CALIFORNIA                SAN FRANCISCO  201611292017010112000002016    
4470000000STOCKTON-LODI, CA                                 203B H03150000362250046375005605500696650CA077CALIFORNIA                SAN JOAQUIN    201611292017010103150002016    
4202000000SAN LUIS OBISPO-PASO ROBLES-ARROYO GRAN           203B H05100000586500075080009075501127900CA079CALIFORNIA                SAN LUIS OBISPO201611292017010105100002016    
4186041884SAN FRANCISCO-OAKLAND-HAYWARD, CA                 203B H12000000636150081450009845251223475CA081CALIFORNIA                SAN MATEO      201611292017010112000002016    
4220000000SANTA MARIA-SANTA BARBARA, CA                     203B H04700000636150081450009845251223475CA083CALIFORNIA                SANTA BARBARA  201611292017010105680002010    
4194000000SAN JOSE-SUNNYVALE-SANTA CLARA, CA                203B H09250000636150081450009845251223475CA085CALIFORNIA                SANTA CLARA    201611292017010109250002016    
4210000000SANTA CRUZ-WATSONVILLE, CA                        203B H06960000636150081450009845251223475CA087CALIFORNIA                SANTA CRUZ     201611292017010106960002016    
3982000000REDDING, CA                                       203B S02200000275665035295004266250530150CA089CALIFORNIA                SHASTA         201611292017010102380002008    
9999900000NON-METRO                                         203B H01450000304750039010004715500586050CA091CALIFORNIA                SIERRA         201611292010010102650002009    
9999900000NON-METRO                                         203B S01330000275665035295004266250530150CA093CALIFORNIA                SISKIYOU       201611292017010101850002008    
4670000000VALLEJO-FAIRFIELD, CA                             203B H03750000431250055205006673500829350CA095CALIFORNIA                SOLANO         201611292017010103750002016    
4222000000SANTA ROSA, CA                                    203B H05180000595700076260009218001145600CA097CALIFORNIA                SONOMA         201611292017010105180002016    
3370000000MODESTO, CA                                       203B H02600000299000038275004626500575000CA099CALIFORNIA                STANISLAUS     201611292017010102600002016    
4970000000YUBA CITY, CA                                     203B H02400000276000035330004271000530750CA101CALIFORNIA                SUTTER         201611292017010102400002016    
3978000000RED BLUFF, CA                                     203B S01600000275665035295004266250530150CA103CALIFORNIA                TEHAMA         201611292017010102000002008    
9999900000NON-METRO                                         203B S01750000275665035295004266250530150CA105CALIFORNIA                TRINITY        201611292017010102000002008    
4730000000VISALIA-PORTERVILLE, CA                           203B S01960000275665035295004266250530150CA107CALIFORNIA                TULARE         201611292017010102120002008    
4376000000SONORA, CA                                        203B H02270000331200042400005125000636900CA109CALIFORNIA                TUOLUMNE       201611292014010102880002008    
3710000000OXNARD-THOUSAND OAKS-VENTURA, CA                  203B H05570000636150081450009845251223475CA111CALIFORNIA                VENTURA        201611292017010105570002016    
4090000000SACRAMENTO--ROSEVILLE--ARDEN-ARCADE, CA           203B H04250000488750062570007563000939900CA113CALIFORNIA                YOLO           201611292017010104250002016    
4970000000YUBA CITY, CA                                     203B H02400000276000035330004271000530750CA115CALIFORNIA                YUBA           201611292017010102400002016    
1974000000DENVER-AURORA-LAKEWOOD, CO                        203B H04290000493350063155007634500948750CO001COLORADO                  ADAMS          201611292017010104290002016    
9999900000NON-METRO                                         203B S01450000275665035295004266250530150CO003COLORADO                  ALAMOSA        201611292017010101620002008    
1974000000DENVER-AURORA-LAKEWOOD, CO                        203B H04290000493350063155007634500948750CO005COLORADO                  ARAPAHOE       201611292017010104290002016    
9999900000NON-METRO                                         203B H02250000285200036510004413000548450CO007COLORADO                  ARCHULETA      201611292014010102480002008    
9999900000NON-METRO                                         203B S00450000275665035295004266250530150CO009COLORADO                  BACA           201611292017010100740002009    
9999900000NON-METRO                                         203B S00460000275665035295004266250530150CO011COLORADO                  BENT           201611292017010101020002009    
1450000000BOULDER, CO                                       203B H04600000529000067720008186001017300CO013COLORADO                  BOULDER        201611292017010104600002016    
1974000000DENVER-AURORA-LAKEWOOD, CO                        203B H04290000493350063155007634500948750CO014COLORADO                  BROOMFIELD     201611292017010104290002016    
9999900000NON-METRO                                         203B S02300000275665035295004266250530150CO015COLORADO                  CHAFFEE        201611292017010102390002008    
9999900000NON-METRO                                         203B S00700000275665035295004266250530150CO017COLORADO                  CHEYENNE       201611292017010101160002009    
1974000000DENVER-AURORA-LAKEWOOD, CO                        203B H04290000493350063155007634500948750CO019COLORADO                  CLEAR CREEK    201611292017010104290002016    
9999900000NON-METRO                                         203B S00790000275665035295004266250530150CO021COLORADO                  CONEJOS        201611292017010100940002014    
9999900000NON-METRO                                         203B S00750000275665035295004266250530150CO023COLORADO                  COSTILLA       201611292017010100850002013    
9999900000NON-METRO                                         203B S00350000275665035295004266250530150CO025COLORADO                  CROWLEY        201611292017010100940002009    
9999900000NON-METRO                                         203B S01650000275665035295004266250530150CO027COLORADO                  CUSTER         201611292017010101890002008    
9999900000NON-METRO                                         203B S01680000275665035295004266250530150CO029COLORADO                  DELTA          201611292017010101770002008    
1974000000DENVER-AURORA-LAKEWOOD, CO                        203B H04290000493350063155007634500948750CO031COLORADO                  DENVER         201611292017010104290002016    
9999900000NON-METRO                                         203B S01080000275665035295004266250530150CO033COLORADO                  DOLORES        201611292017010101450002009    
1974000000DENVER-AURORA-LAKEWOOD, CO                        203B H04290000493350063155007634500948750CO035COLORADO                  DOUGLAS        201611292017010104290002016    
2078000000EDWARDS, CO                                       203B H05600000636150081450009845251223475CO037COLORADO                  EAGLE          201611292017010107100002008    
1974000000DENVER-AURORA-LAKEWOOD, CO                        203B H04290000493350063155007634500948750CO039COLORADO                  ELBERT         201611292017010104290002016    
1782000000COLORADO SPRINGS, CO                              203B H02480000285200036510004413000548450CO041COLORADO                  EL PASO        201611292017010102480002016    
1586000000CANON CITY, CO                                    203B S01500000275665035295004266250530150CO043COLORADO                  FREMONT        201611292017010101500002016    
2406000000GLENWOOD SPRINGS, CO                              203B H05550000636150081450009845251223475CO045COLORADO                  GARFIELD       201611292017010119000002009    
1974000000DENVER-AURORA-LAKEWOOD, CO                        203B H04290000493350063155007634500948750CO047COLORADO                  GILPIN         201611292017010104290002016    
9999900000NON-METRO                                         203B H02890000333500042695005160500641350CO049COLORADO                  GRAND          201611292014010102900002009    
9999900000NON-METRO                                         203B H02600000357650045785005534500687800CO051COLORADO                  GUNNISON       201611292014010103110002008    
9999900000NON-METRO                                         203B H03000000427800054765006620000822700CO053COLORADO                  HINSDALE       201611292014010103720002009    
9999900000NON-METRO                                         203B S00940000275665035295004266250530150CO055COLORADO                  HUERFANO       201611292017010101390002009    
9999900000NON-METRO                                         203B S01320000275665035295004266250530150CO057COLORADO                  JACKSON        201611292017010101480002015    
1974000000DENVER-AURORA-LAKEWOOD, CO                        203B H04290000493350063155007634500948750CO059COLORADO                  JEFFERSON      201611292017010104290002016    
9999900000NON-METRO                                         203B S00310000275665035295004266250530150CO061COLORADO                  KIOWA          201611292017010100730002014    
9999900000NON-METRO                                         203B S00780000275665035295004266250530150CO063COLORADO                  KIT CARSON     201611292017010101250002009    
9999900000NON-METRO                                         203B S01700000275665035295004266250530150CO065COLORADO                  LAKE           201611292016112907100002008    
2042000000DURANGO, CO                                       203B H03350000385250049320005961500740850CO067COLORADO                  LA PLATA       201611292017010103350002016    
2266000000FORT COLLINS, CO                                  203B H03270000376050048140005819000723150CO069COLORADO                  LARIMER        201611292017010103270002016    
9999900000NON-METRO                                         203B S00850000275665035295004266250530150CO071COLORADO                  LAS ANIMAS     201611292017010101570002008    
9999900000NON-METRO                                         203B S00840000275665035295004266250530150CO073COLORADO                  LINCOLN        201611292017010101370002008    
4454000000STERLING, CO                                      203B S01250000275665035295004266250530150CO075COLORADO                  LOGAN          201611292017010101250002016    
2430000000GRAND JUNCTION, CO                                203B H02030000282900036215004377500544050CO077COLORADO                  MESA           201611292014010102280002008    
9999900000NON-METRO                                         203B S01700000275665035295004266250530150CO079COLORADO                  MINERAL        201611292017010102000002009    
1878000000CRAIG, CO                                         203B S01450000275665035295004266250530150CO081COLORADO                  MOFFAT         201611292016112901670002008    
9999900000NON-METRO                                         203B S01690000275665035295004266250530150CO083COLORADO                  MONTEZUMA      201611292017010101740002009    
3394000000MONTROSE, CO                                      203B S01950000275665035295004266250530150CO085COLORADO                  MONTROSE       201611292017010101960002008    
2282000000FORT MORGAN, CO                                   203B S01400000275665035295004266250530150CO087COLORADO                  MORGAN         201611292017010101450002015    
9999900000NON-METRO                                         203B S00680000275665035295004266250530150CO089COLORADO                  OTERO          201611292017010100830002008    
9999900000NON-METRO                                         203B H02630000425500054470006584500818250CO091COLORADO                  OURAY          201611292014010103700002009    
1974000000DENVER-AURORA-LAKEWOOD, CO                        203B H04290000493350063155007634500948750CO093COLORADO                  PARK           201611292017010104290002016    
9999900000NON-METRO                                         203B S00990000275665035295004266250530150CO095COLORADO                  PHILLIPS       201611292017010101120002008    
2406000000GLENWOOD SPRINGS, CO                              203B H05550000636150081450009845251223475CO097COLORADO                  PITKIN         201611292017010119000002009    
9999900000NON-METRO                                         203B S00750000275665035295004266250530150CO099COLORADO                  PROWERS        201611292017010100750002008    
3938000000PUEBLO, CO                                        203B S01490000275665035295004266250530150CO101COLORADO                  PUEBLO         201611292017010101490002016    
9999900000NON-METRO                                         203B S01570000275665035295004266250530150CO103COLORADO                  RIO BLANCO     201611292017010101770002008    
9999900000NON-METRO                                         203B S01260000275665035295004266250530150CO105COLORADO                  RIO GRANDE     201611292017010101440002008    
4446000000STEAMBOAT SPRINGS, CO                             203B H04500000634800081265009823001220800CO107COLORADO                  ROUTT          201611292017010105520002008    
9999900000NON-METRO                                         203B S01000000275665035295004266250530150CO109COLORADO                  SAGUACHE       201611292017010101450002009    
9999900000NON-METRO                                         203B S02110000275665035295004266250530150CO111COLORADO                  SAN JUAN       201611292017010102330002014    
9999900000NON-METRO                                         203B H03480000636150081450009845251223475CO113COLORADO                  SAN MIGUEL     201611292017010113700002009    
9999900000NON-METRO                                         203B S00630000275665035295004266250530150CO115COLORADO                  SEDGWICK       201611292017010101000002009    
1472000000BRECKENRIDGE, CO                                  203B H04000000636150081450009845251223475CO117COLORADO                  SUMMIT         201611292017010106280002008    
1782000000COLORADO SPRINGS, CO                              203B H02480000285200036510004413000548450CO119COLORADO                  TELLER         201611292017010102480002016    
9999900000NON-METRO                                         203B S01270000275665035295004266250530150CO121COLORADO                  WASHINGTON     201611292017010101270002016    
2454000000GREELEY, CO                                       203B H02800000322000041220004982500619250CO123COLORADO                  WELD           201611292017010102800002016    
9999900000NON-METRO                                         203B S01180000275665035295004266250530150CO125COLORADO                  YUMA           201611292017010101230002015    
1486000000BRIDGEPORT-STAMFORD-NORWALK, CT                   203B H04700000601450076995009307001156650CT001CONNECTICUT               FAIRFIELD      201611292014010105230002011    
2554000000HARTFORD-WEST HARTFORD-EAST HARTFORD, C           203B H02700000353050045195005463000678950CT003CONNECTICUT               HARTFORD       201611292014010102790002008    
4586000000TORRINGTON, CT                                    203B H02390000357650045785005534500687800CT005CONNECTICUT               LITCHFIELD     201611292014010103110002008    
2554000000HARTFORD-WEST HARTFORD-EAST HARTFORD, C           203B H02700000353050045195005463000678950CT007CONNECTICUT               MIDDLESEX      201611292014010102790002008    
3530000000NEW HAVEN-MILFORD, CT                             203B H02400000305900039160004733500588250CT009CONNECTICUT               NEW HAVEN      201611292014010102660002008    
3598000000NORWICH-NEW LONDON, CT                            203B H02270000280600035920004342000539600CT011CONNECTICUT               NEW LONDON     201611292014010102440002008    
2554000000HARTFORD-WEST HARTFORD-EAST HARTFORD, C           203B H02700000353050045195005463000678950CT013CONNECTICUT               TOLLAND        201611292014010102790002008    
4934000000WORCESTER, MA-CT                                  203B H02500000287500036805004449000552900CT015CONNECTICUT               WINDHAM        201611292017010102500002016    
4790047894WASHINGTON-ARLINGTON-ALEXANDRIA, DC-VA-           203B H07800000636150081450009845251223475DC001DISTRICT OF COLUMBIA      DISTRICT OF COL201611292017010107800002016    
2010000000DOVER, DE                                         203B S02110000275665035295004266250530150DE001DELAWARE                  KENT           201611292017010102200002008    
3798048864PHILADELPHIA-CAMDEN-WILMINGTON, PA-NJ-D           203B H03250000379500048580005872500729800DE003DELAWARE                  NEW CASTLE     201611292014010103300002008    
4154000000SALISBURY, MD-DE                                  203B H02690000316250040485004893500608150DE005DELAWARE                  SUSSEX         201611292014010102750002008    
2354000000GAINESVILLE, FL                                   203B S01720000275665035295004266250530150FL001FLORIDA                   ALACHUA        201611292017010101930002008    
2726000000JACKSONVILLE, FL                                  203B H02870000330050042250005107000634700FL003FLORIDA                   BAKER          201611292017010102870002016    
3746000000PANAMA CITY, FL                                   203B S01600000275665035295004266250530150FL005FLORIDA                   BAY            201611292017010101760002008    
9999900000NON-METRO                                         203B S00700000275665035295004266250530150FL007FLORIDA                   BRADFORD       201611292017010101010002008    
3734000000PALM BAY-MELBOURNE-TITUSVILLE, FL                 203B S01690000275665035295004266250530150FL009FLORIDA                   BREVARD        201611292017010101700002008    
3310022744MIAMI-FORT LAUDERDALE-WEST PALM BEACH,            203B H02850000345000044165005338500663450FL011FLORIDA                   BROWARD        201611292014010103000002008    
9999900000NON-METRO                                         203B S00550000275665035295004266250530150FL013FLORIDA                   CALHOUN        201611292017010100790002009    
3946000000PUNTA GORDA, FL                                   203B S01610000275665035295004266250530150FL015FLORIDA                   CHARLOTTE      201611292017010101630002008    
2614000000HOMOSASSA SPRINGS, FL                             203B S00950000275665035295004266250530150FL017FLORIDA                   CITRUS         201611292017010101350002008    
2726000000JACKSONVILLE, FL                                  203B H02870000330050042250005107000634700FL019FLORIDA                   CLAY           201611292017010102870002016    
3494000000NAPLES-IMMOKALEE-MARCO ISLAND, FL                 203B H03920000450800057710006976000866950FL021FLORIDA                   COLLIER        201611292017010103920002016    
2938000000LAKE CITY, FL                                     203B S00800000275665035295004266250530150FL023FLORIDA                   COLUMBIA       201611292017010101250002009    
1158000000ARCADIA, FL                                       203B S00790000275665035295004266250530150FL027FLORIDA                   DESOTO         201611292017010101100002008    
9999900000NON-METRO                                         203B S00430000275665035295004266250530150FL029FLORIDA                   DIXIE          201611292017010100930002008    
2726000000JACKSONVILLE, FL                                  203B H02870000330050042250005107000634700FL031FLORIDA                   DUVAL          201611292017010102870002016    
3786000000PENSACOLA-FERRY PASS-BRENT, FL                    203B S01800000275665035295004266250530150FL033FLORIDA                   ESCAMBIA       201611292017010101850002008    
1966000000DELTONA-DAYTONA BEACH-ORMOND BEACH, FL            203B S01800000275665035295004266250530150FL035FLORIDA                   FLAGLER        201611292017010101880002009    
9999900000NON-METRO                                         203B S01310000275665035295004266250530150FL037FLORIDA                   FRANKLIN       201611292017010102130002009    
4522000000TALLAHASSEE, FL                                   203B S01670000275665035295004266250530150FL039FLORIDA                   GADSDEN        201611292017010101800002008    
2354000000GAINESVILLE, FL                                   203B S01720000275665035295004266250530150FL041FLORIDA                   GILCHRIST      201611292017010101930002008    
9999900000NON-METRO                                         203B S00650000275665035295004266250530150FL043FLORIDA                   GLADES         201611292017010100860002009    
3746000000PANAMA CITY, FL                                   203B S01600000275665035295004266250530150FL045FLORIDA                   GULF           201611292017010102070002008    
9999900000NON-METRO                                         203B S00520000275665035295004266250530150FL047FLORIDA                   HAMILTON       201611292017010100700002009    
4810000000WAUCHULA, FL                                      203B S00500000275665035295004266250530150FL049FLORIDA                   HARDEE         201611292017010100870002008    
1750000000CLEWISTON, FL                                     203B S00650000275665035295004266250530150FL051FLORIDA                   HENDRY         201611292017010101200002008    
4530000000TAMPA-ST. PETERSBURG-CLEARWATER, FL               203B S02040000275665035295004266250530150FL053FLORIDA                   HERNANDO       201611292017010102040002016    
4270000000SEBRING, FL                                       203B S00900000275665035295004266250530150FL055FLORIDA                   HIGHLANDS      201611292017010101290002008    
4530000000TAMPA-ST. PETERSBURG-CLEARWATER, FL               203B S02040000275665035295004266250530150FL057FLORIDA                   HILLSBOROUGH   201611292017010102040002016    
9999900000NON-METRO                                         203B S00510000275665035295004266250530150FL059FLORIDA                   HOLMES         201611292017010100930002008    
4268000000SEBASTIAN-VERO BEACH, FL                          203B S01950000275665035295004266250530150FL061FLORIDA                   INDIAN RIVER   201611292017010102050002008    
9999900000NON-METRO                                         203B S00700000275665035295004266250530150FL063FLORIDA                   JACKSON        201611292017010101100002008    
4522000000TALLAHASSEE, FL                                   203B S01670000275665035295004266250530150FL065FLORIDA                   JEFFERSON      201611292017010101800002008    
9999900000NON-METRO                                         203B S00450000275665035295004266250530150FL067FLORIDA                   LAFAYETTE      201611292017010100970002009    
3674000000ORLANDO-KISSIMMEE-SANFORD, FL                     203B H02410000277150035480004288500532950FL069FLORIDA                   LAKE           201611292017010102410002016    
1598000000CAPE CORAL-FORT MYERS, FL                         203B S02040000275665035295004266250530150FL071FLORIDA                   LEE            201611292017010102040002016    
4522000000TALLAHASSEE, FL                                   203B S01670000275665035295004266250530150FL073FLORIDA                   LEON           201611292017010101800002008    
9999900000NON-METRO                                         203B S00610000275665035295004266250530150FL075FLORIDA                   LEVY           201611292017010100900002008    
9999900000NON-METRO                                         203B S00360000275665035295004266250530150FL077FLORIDA                   LIBERTY        201611292017010101000002008    
9999900000NON-METRO                                         203B S00480000275665035295004266250530150FL079FLORIDA                   MADISON        201611292017010100950002009    
3584000000NORTH PORT-SARASOTA-BRADENTON, FL                 203B H02500000287500036805004449000552900FL081FLORIDA                   MANATEE        201611292017010102500002016    
3610000000OCALA, FL                                         203B S01150000275665035295004266250530150FL083FLORIDA                   MARION         201611292017010101510002008    
3894000000PORT ST. LUCIE, FL                                203B H02600000316250040485004893500608150FL085FLORIDA                   MARTIN         201611292014010102750002008    
3310033124MIAMI-FORT LAUDERDALE-WEST PALM BEACH,            203B H02850000345000044165005338500663450FL086FLORIDA                   MIAMI-DADE     201611292014010103000002008    
2858000000KEY WEST, FL                                      203B H04240000529000067720008186001017300FL087FLORIDA                   MONROE         201611292014010104600002008    
2726000000JACKSONVILLE, FL                                  203B H02870000330050042250005107000634700FL089FLORIDA                   NASSAU         201611292017010102870002016    
1888000000CRESTVIEW-FORT WALTON BEACH-DESTIN, FL            203B H02970000341550043725005285000656800FL091FLORIDA                   OKALOOSA       201611292017010102970002016    
3638000000OKEECHOBEE, FL                                    203B S00600000275665035295004266250530150FL093FLORIDA                   OKEECHOBEE     201611292017010101100002008    
3674000000ORLANDO-KISSIMMEE-SANFORD, FL                     203B H02410000277150035480004288500532950FL095FLORIDA                   ORANGE         201611292017010102410002016    
3674000000ORLANDO-KISSIMMEE-SANFORD, FL                     203B H02410000277150035480004288500532950FL097FLORIDA                   OSCEOLA        201611292017010102410002016    
3310048424MIAMI-FORT LAUDERDALE-WEST PALM BEACH,            203B H02850000345000044165005338500663450FL099FLORIDA                   PALM BEACH     201611292014010103000002008    
4530000000TAMPA-ST. PETERSBURG-CLEARWATER, FL               203B S02040000275665035295004266250530150FL101FLORIDA                   PASCO          201611292017010102040002016    
4530000000TAMPA-ST. PETERSBURG-CLEARWATER, FL               203B S02040000275665035295004266250530150FL103FLORIDA                   PINELLAS       201611292017010102040002016    
2946000000LAKELAND-WINTER HAVEN, FL                         203B S01500000275665035295004266250530150FL105FLORIDA                   POLK           201611292017010101650002008    
3726000000PALATKA, FL                                       203B S00490000275665035295004266250530150FL107FLORIDA                   PUTNAM         201611292017010100960002008    
2726000000JACKSONVILLE, FL                                  203B H02870000330050042250005107000634700FL109FLORIDA                   ST. JOHNS      201611292017010102870002016    
3894000000PORT ST. LUCIE, FL                                203B H02600000316250040485004893500608150FL111FLORIDA                   ST. LUCIE      201611292014010102750002008    
3786000000PENSACOLA-FERRY PASS-BRENT, FL                    203B S01800000275665035295004266250530150FL113FLORIDA                   SANTA ROSA     201611292017010101850002008    
3584000000NORTH PORT-SARASOTA-BRADENTON, FL                 203B H02500000287500036805004449000552900FL115FLORIDA                   SARASOTA       201611292017010102500002016    
3674000000ORLANDO-KISSIMMEE-SANFORD, FL                     203B H02410000277150035480004288500532950FL117FLORIDA                   SEMINOLE       201611292017010102410002016    
4554000000THE VILLAGES, FL                                  203B H02490000287500036805004449000552900FL119FLORIDA                   SUMTER         201611292016010102500002015    
9999900000NON-METRO                                         203B S00560000275665035295004266250530150FL121FLORIDA                   SUWANNEE       201611292017010101160002008    
9999900000NON-METRO                                         203B S00550000275665035295004266250530150FL123FLORIDA                   TAYLOR         201611292017010100830002009    
9999900000NON-METRO                                         203B S00680000275665035295004266250530150FL125FLORIDA                   UNION          201611292017010101300002009    
1966000000DELTONA-DAYTONA BEACH-ORMOND BEACH, FL            203B S01800000275665035295004266250530150FL127FLORIDA                   VOLUSIA        201611292017010101880002009    
4522000000TALLAHASSEE, FL                                   203B S01670000275665035295004266250530150FL129FLORIDA                   WAKULLA        201611292017010101800002008    
1888000000CRESTVIEW-FORT WALTON BEACH-DESTIN, FL            203B H02970000341550043725005285000656800FL131FLORIDA                   WALTON         201611292017010102970002016    
9999900000NON-METRO                                         203B S00670000275665035295004266250530150FL133FLORIDA                   WASHINGTON     201611292017010101050002008    
9999900000NON-METRO                                         203B S00450000275665035295004266250530150GA001GEORGIA                   APPLING        201611292017010101230002009    
9999900000NON-METRO                                         203B S00150000275665035295004266250530150GA003GEORGIA                   ATKINSON       201611292016112901250002008    
9999900000NON-METRO                                         203B S00380000275665035295004266250530150GA005GEORGIA                   BACON          201611292017010100810002008    
1050000000ALBANY, GA                                        203B S01430000275665035295004266250530150GA007GEORGIA                   BAKER          201611292017010101910002008    
3330000000MILLEDGEVILLE, GA                                 203B S01050000275665035295004266250530150GA009GEORGIA                   BALDWIN        201611292017010101660002008    
9999900000NON-METRO                                         203B S01170000275665035295004266250530150GA011GEORGIA                   BANKS          201611292017010101300002009    
1206000000ATLANTA-SANDY SPRINGS-ROSWELL, GA                 203B H03120000358800045930005552000690000GA013GEORGIA                   BARROW         201611292017010103120002016    
1206000000ATLANTA-SANDY SPRINGS-ROSWELL, GA                 203B H03120000358800045930005552000690000GA015GEORGIA                   BARTOW         201611292017010103120002016    
2234000000FITZGERALD, GA                                    203B S00500000275665035295004266250530150GA017GEORGIA                   BEN HILL       201611292017010101010002008    
9999900000NON-METRO                                         203B S00480000275665035295004266250530150GA019GEORGIA                   BERRIEN        201611292017010101260002008    
3142000000MACON, GA                                         203B S01110000275665035295004266250530150GA021GEORGIA                   BIBB           201611292017010101780002010    
9999900000NON-METRO                                         203B S00650000275665035295004266250530150GA023GEORGIA                   BLECKLEY       201611292017010101210002008    
1526000000BRUNSWICK, GA                                     203B S02090000275665035295004266250530150GA025GEORGIA                   BRANTLEY       201611292017010102090002016    
4666000000VALDOSTA, GA                                      203B S01250000275665035295004266250530150GA027GEORGIA                   BROOKS         201611292017010101590002008    
4234000000SAVANNAH, GA                                      203B S02280000275665035295004266250530150GA029GEORGIA                   BRYAN          201611292017010102280002016    
4434000000STATESBORO, GA                                    203B S01290000275665035295004266250530150GA031GEORGIA                   BULLOCH        201611292017010101400002008    
1226000000AUGUSTA-RICHMOND , GA-SC                          203B S01780000275665035295004266250530150GA033GEORGIA                   BURKE          201611292017010101850002015    
1206000000ATLANTA-SANDY SPRINGS-ROSWELL, GA                 203B H03120000358800045930005552000690000GA035GEORGIA                   BUTTS          201611292017010103120002016    
9999900000NON-METRO                                         203B S00450000275665035295004266250530150GA037GEORGIA                   CALHOUN        201611292017010100780002009    
4122000000ST. MARYS, GA                                     203B S01300000275665035295004266250530150GA039GEORGIA                   CAMDEN         201611292017010101490002009    
9999900000NON-METRO                                         203B S00530000275665035295004266250530150GA043GEORGIA                   CANDLER        201611292017010100900002008    
1206000000ATLANTA-SANDY SPRINGS-ROSWELL, GA                 203B H03120000358800045930005552000690000GA045GEORGIA                   CARROLL        201611292017010103120002016    
1686000000CHATTANOOGA, TN-GA                                203B S01690000275665035295004266250530150GA047GEORGIA                   CATOOSA        201611292017010101690002016    
9999900000NON-METRO                                         203B S00610000275665035295004266250530150GA049GEORGIA                   CHARLTON       201611292017010101130002008    
4234000000SAVANNAH, GA                                      203B S02280000275665035295004266250530150GA051GEORGIA                   CHATHAM        201611292017010102280002016    
1798000000COLUMBUS, GA-AL                                   203B H01870000289800037100004484500557300GA053GEORGIA                   CHATTAHOOCHEE  201611292010010102520002009    
4490000000SUMMERVILLE, GA                                   203B S00510000275665035295004266250530150GA055GEORGIA                   CHATTOOGA      201611292017010101240002009    
1206000000ATLANTA-SANDY SPRINGS-ROSWELL, GA                 203B H03120000358800045930005552000690000GA057GEORGIA                   CHEROKEE       201611292017010103120002016    
1202000000ATHENS-CLARKE , GA                                203B H02640000320850041075004965000617000GA059GEORGIA                   CLARKE         201611292014010102790002009    
9999900000NON-METRO                                         203B S00490000275665035295004266250530150GA061GEORGIA                   CLAY           201611292017010101120002008    
1206000000ATLANTA-SANDY SPRINGS-ROSWELL, GA                 203B H03120000358800045930005552000690000GA063GEORGIA                   CLAYTON        201611292017010103120002016    
9999900000NON-METRO                                         203B S00400000275665035295004266250530150GA065GEORGIA                   CLINCH         201611292017010101220002008    
1206000000ATLANTA-SANDY SPRINGS-ROSWELL, GA                 203B H03120000358800045930005552000690000GA067GEORGIA                   COBB           201611292017010103120002016    
2006000000DOUGLAS, GA                                       203B S00670000275665035295004266250530150GA069GEORGIA                   COFFEE         201611292017010101250002008    
3422000000MOULTRIE, GA                                      203B S00560000275665035295004266250530150GA071GEORGIA                   COLQUITT       201611292017010101090002008    
1226000000AUGUSTA-RICHMOND , GA-SC                          203B S01780000275665035295004266250530150GA073GEORGIA                   COLUMBIA       201611292017010101850002015    
9999900000NON-METRO                                         203B S00580000275665035295004266250530150GA075GEORGIA                   COOK           201611292017010100870002008    
1206000000ATLANTA-SANDY SPRINGS-ROSWELL, GA                 203B H03120000358800045930005552000690000GA077GEORGIA                   COWETA         201611292017010103120002016    
3142000000MACON, GA                                         203B S01110000275665035295004266250530150GA079GEORGIA                   CRAWFORD       201611292017010101780002010    
1838000000CORDELE, GA                                       203B S00810000275665035295004266250530150GA081GEORGIA                   CRISP          201611292017010101190002010    
1686000000CHATTANOOGA, TN-GA                                203B S01690000275665035295004266250530150GA083GEORGIA                   DADE           201611292017010101690002016    
1206000000ATLANTA-SANDY SPRINGS-ROSWELL, GA                 203B H03120000358800045930005552000690000GA085GEORGIA                   DAWSON         201611292017010103120002016    
1246000000BAINBRIDGE, GA                                    203B S00760000275665035295004266250530150GA087GEORGIA                   DECATUR        201611292017010101310002008    
1206000000ATLANTA-SANDY SPRINGS-ROSWELL, GA                 203B H03120000358800045930005552000690000GA089GEORGIA                   DEKALB         201611292017010103120002016    
9999900000NON-METRO                                         203B S00500000275665035295004266250530150GA091GEORGIA                   DODGE          201611292017010100900002008    
9999900000NON-METRO                                         203B S00690000275665035295004266250530150GA093GEORGIA                   DOOLY          201611292017010100890002008    
1050000000ALBANY, GA                                        203B S01430000275665035295004266250530150GA095GEORGIA                   DOUGHERTY      201611292017010101910002008    
1206000000ATLANTA-SANDY SPRINGS-ROSWELL, GA                 203B H03120000358800045930005552000690000GA097GEORGIA                   DOUGLAS        201611292017010103120002016    
9999900000NON-METRO                                         203B S00530000275665035295004266250530150GA099GEORGIA                   EARLY          201611292017010100990002008    
4666000000VALDOSTA, GA                                      203B S01250000275665035295004266250530150GA101GEORGIA                   ECHOLS         201611292017010101590002008    
4234000000SAVANNAH, GA                                      203B S02280000275665035295004266250530150GA103GEORGIA                   EFFINGHAM      201611292017010102280002016    
9999900000NON-METRO                                         203B S00700000275665035295004266250530150GA105GEORGIA                   ELBERT         201611292017010101030002008    
9999900000NON-METRO                                         203B S00350000275665035295004266250530150GA107GEORGIA                   EMANUEL        201611292017010100890002008    
9999900000NON-METRO                                         203B S00620000275665035295004266250530150GA109GEORGIA                   EVANS          201611292017010101220002008    
9999900000NON-METRO                                         203B S01630000275665035295004266250530150GA111GEORGIA                   FANNIN         201611292017010102140002009    
1206000000ATLANTA-SANDY SPRINGS-ROSWELL, GA                 203B H03120000358800045930005552000690000GA113GEORGIA                   FAYETTE        201611292017010103120002016    
4066000000ROME, GA                                          203B S01040000275665035295004266250530150GA115GEORGIA                   FLOYD          201611292017010101260002008    
1206000000ATLANTA-SANDY SPRINGS-ROSWELL, GA                 203B H03120000358800045930005552000690000GA117GEORGIA                   FORSYTH        201611292017010103120002016    
9999900000NON-METRO                                         203B S00880000275665035295004266250530150GA119GEORGIA                   FRANKLIN       201611292017010101200002009    
1206000000ATLANTA-SANDY SPRINGS-ROSWELL, GA                 203B H03120000358800045930005552000690000GA121GEORGIA                   FULTON         201611292017010103120002016    
9999900000NON-METRO                                         203B S01180000275665035295004266250530150GA123GEORGIA                   GILMER         201611292017010101760002008    
9999900000NON-METRO                                         203B S00300000275665035295004266250530150GA125GEORGIA                   GLASCOCK       201611292017010100700002008    
1526000000BRUNSWICK, GA                                     203B S02090000275665035295004266250530150GA127GEORGIA                   GLYNN          201611292017010102090002016    
1566000000CALHOUN, GA                                       203B S01100000275665035295004266250530150GA129GEORGIA                   GORDON         201611292017010101280002008    
9999900000NON-METRO                                         203B S00850000275665035295004266250530150GA131GEORGIA                   GRADY          201611292017010101220002008    
9999900000NON-METRO                                         203B H02320000515200065955007972500990800GA133GEORGIA                   GREENE         201611292014010104480002008    
1206000000ATLANTA-SANDY SPRINGS-ROSWELL, GA                 203B H03120000358800045930005552000690000GA135GEORGIA                   GWINNETT       201611292017010103120002016    
1846000000CORNELIA, GA                                      203B S01270000275665035295004266250530150GA137GEORGIA                   HABERSHAM      201611292017010101320002008    
2358000000GAINESVILLE, GA                                   203B S01760000275665035295004266250530150GA139GEORGIA                   HALL           201611292017010101820002008    
3330000000MILLEDGEVILLE, GA                                 203B S01050000275665035295004266250530150GA141GEORGIA                   HANCOCK        201611292017010101660002008    
1206000000ATLANTA-SANDY SPRINGS-ROSWELL, GA                 203B H03120000358800045930005552000690000GA143GEORGIA                   HARALSON       201611292017010103120002016    
1798000000COLUMBUS, GA-AL                                   203B H01870000289800037100004484500557300GA145GEORGIA                   HARRIS         201611292010010102520002009    
9999900000NON-METRO                                         203B S01250000275665035295004266250530150GA147GEORGIA                   HART           201611292017010101620002008    
1206000000ATLANTA-SANDY SPRINGS-ROSWELL, GA                 203B H03120000358800045930005552000690000GA149GEORGIA                   HEARD          201611292017010103120002016    
1206000000ATLANTA-SANDY SPRINGS-ROSWELL, GA                 203B H03120000358800045930005552000690000GA151GEORGIA                   HENRY          201611292017010103120002016    
4758000000WARNER ROBINS, GA                                 203B S01350000275665035295004266250530150GA153GEORGIA                   HOUSTON        201611292017010101800002008    
9999900000NON-METRO                                         203B S00600000275665035295004266250530150GA155GEORGIA                   IRWIN          201611292016112901010002008    
2760000000JEFFERSON, GA                                     203B S01700000275665035295004266250530150GA157GEORGIA                   JACKSON        201611292016112901700002016    
1206000000ATLANTA-SANDY SPRINGS-ROSWELL, GA                 203B H03120000358800045930005552000690000GA159GEORGIA                   JASPER         201611292017010103120002016    
9999900000NON-METRO                                         203B S00410000275665035295004266250530150GA161GEORGIA                   JEFF DAVIS     201611292017010101100002008    
9999900000NON-METRO                                         203B S00400000275665035295004266250530150GA163GEORGIA                   JEFFERSON      201611292017010100850002009    
9999900000NON-METRO                                         203B S00430000275665035295004266250530150GA165GEORGIA                   JENKINS        201611292017010100710002008    
2014000000DUBLIN, GA                                        203B S00590000275665035295004266250530150GA167GEORGIA                   JOHNSON        201611292017010101340002008    
3142000000MACON, GA                                         203B S01110000275665035295004266250530150GA169GEORGIA                   JONES          201611292017010101780002010    
1206000000ATLANTA-SANDY SPRINGS-ROSWELL, GA                 203B H03120000358800045930005552000690000GA171GEORGIA                   LAMAR          201611292017010103120002016    
4666000000VALDOSTA, GA                                      203B S01250000275665035295004266250530150GA173GEORGIA                   LANIER         201611292017010101590002008    
2014000000DUBLIN, GA                                        203B S00590000275665035295004266250530150GA175GEORGIA                   LAURENS        201611292017010101340002008    
1050000000ALBANY, GA                                        203B S01430000275665035295004266250530150GA177GEORGIA                   LEE            201611292017010101910002008    
2598000000HINESVILLE, GA                                    203B S01510000275665035295004266250530150GA179GEORGIA                   LIBERTY        201611292017010101550002009    
1226000000AUGUSTA-RICHMOND , GA-SC                          203B S01780000275665035295004266250530150GA181GEORGIA                   LINCOLN        201611292017010101850002015    
2598000000HINESVILLE, GA                                    203B S01510000275665035295004266250530150GA183GEORGIA                   LONG           201611292017010101550002009    
4666000000VALDOSTA, GA                                      203B S01250000275665035295004266250530150GA185GEORGIA                   LOWNDES        201611292017010101590002008    
9999900000NON-METRO                                         203B S01300000275665035295004266250530150GA187GEORGIA                   LUMPKIN        201611292017010101650002008    
1226000000AUGUSTA-RICHMOND , GA-SC                          203B S01780000275665035295004266250530150GA189GEORGIA                   MCDUFFIE       201611292017010101850002015    
1526000000BRUNSWICK, GA                                     203B S02090000275665035295004266250530150GA191GEORGIA                   MCINTOSH       201611292017010102090002016    
9999900000NON-METRO                                         203B S00410000275665035295004266250530150GA193GEORGIA                   MACON          201611292017010101000002008    
1202000000ATHENS-CLARKE , GA                                203B H02640000320850041075004965000617000GA195GEORGIA                   MADISON        201611292014010102790002009    
1798000000COLUMBUS, GA-AL                                   203B H01870000289800037100004484500557300GA197GEORGIA                   MARION         201611292010010102520002009    
1206000000ATLANTA-SANDY SPRINGS-ROSWELL, GA                 203B H03120000358800045930005552000690000GA199GEORGIA                   MERIWETHER     201611292017010103120002016    
9999900000NON-METRO                                         203B S00460000275665035295004266250530150GA201GEORGIA                   MILLER         201611292017010101180002008    
9999900000NON-METRO                                         203B S00430000275665035295004266250530150GA205GEORGIA                   MITCHELL       201611292017010100980002008    
3142000000MACON, GA                                         203B S01110000275665035295004266250530150GA207GEORGIA                   MONROE         201611292017010101780002010    
4708000000VIDALIA, GA                                       203B S00650000275665035295004266250530150GA209GEORGIA                   MONTGOMERY     201611292017010101170002008    
1206000000ATLANTA-SANDY SPRINGS-ROSWELL, GA                 203B H03120000358800045930005552000690000GA211GEORGIA                   MORGAN         201611292017010103120002016    
1914000000DALTON, GA                                        203B S01060000275665035295004266250530150GA213GEORGIA                   MURRAY         201611292017010101280002008    
1798000000COLUMBUS, GA-AL                                   203B H01870000289800037100004484500557300GA215GEORGIA                   MUSCOGEE       201611292010010102520002009    
1206000000ATLANTA-SANDY SPRINGS-ROSWELL, GA                 203B H03120000358800045930005552000690000GA217GEORGIA                   NEWTON         201611292017010103120002016    
1202000000ATHENS-CLARKE , GA                                203B H02640000320850041075004965000617000GA219GEORGIA                   OCONEE         201611292014010102790002009    
1202000000ATHENS-CLARKE , GA                                203B H02640000320850041075004965000617000GA221GEORGIA                   OGLETHORPE     201611292014010102790002009    
1206000000ATLANTA-SANDY SPRINGS-ROSWELL, GA                 203B H03120000358800045930005552000690000GA223GEORGIA                   PAULDING       201611292017010103120002016    
4758000000WARNER ROBINS, GA                                 203B S01350000275665035295004266250530150GA225GEORGIA                   PEACH          201611292017010101570002008    
1206000000ATLANTA-SANDY SPRINGS-ROSWELL, GA                 203B H03120000358800045930005552000690000GA227GEORGIA                   PICKENS        201611292017010103120002016    
4818000000WAYCROSS, GA                                      203B S00580000275665035295004266250530150GA229GEORGIA                   PIERCE         201611292017010101180002008    
1206000000ATLANTA-SANDY SPRINGS-ROSWELL, GA                 203B H03120000358800045930005552000690000GA231GEORGIA                   PIKE           201611292017010103120002016    
1634000000CEDARTOWN, GA                                     203B S00820000275665035295004266250530150GA233GEORGIA                   POLK           201611292017010101060002008    
4758000000WARNER ROBINS, GA                                 203B S01350000275665035295004266250530150GA235GEORGIA                   PULASKI        201611292017010101800002008    
9999900000NON-METRO                                         203B S01500000275665035295004266250530150GA237GEORGIA                   PUTNAM         201611292017010102220002008    
9999900000NON-METRO                                         203B S00260000275665035295004266250530150GA239GEORGIA                   QUITMAN        201611292016112901260002010    
9999900000NON-METRO                                         203B S01450000275665035295004266250530150GA241GEORGIA                   RABUN          201611292017010101730002009    
9999900000NON-METRO                                         203B S00250000275665035295004266250530150GA243GEORGIA                   RANDOLPH       201611292017010100970002008    
1226000000AUGUSTA-RICHMOND , GA-SC                          203B S01780000275665035295004266250530150GA245GEORGIA                   RICHMOND       201611292017010101850002015    
1206000000ATLANTA-SANDY SPRINGS-ROSWELL, GA                 203B H03120000358800045930005552000690000GA247GEORGIA                   ROCKDALE       201611292017010103120002016    
1114000000AMERICUS, GA                                      203B S00630000275665035295004266250530150GA249GEORGIA                   SCHLEY         201611292017010101050002008    
9999900000NON-METRO                                         203B S00550000275665035295004266250530150GA251GEORGIA                   SCREVEN        201611292017010100980002008    
9999900000NON-METRO                                         203B S00420000275665035295004266250530150GA253GEORGIA                   SEMINOLE       201611292017010101090002008    
1206000000ATLANTA-SANDY SPRINGS-ROSWELL, GA                 203B H03120000358800045930005552000690000GA255GEORGIA                   SPALDING       201611292017010103120002016    
4574000000TOCCOA, GA                                        203B S00850000275665035295004266250530150GA257GEORGIA                   STEPHENS       201611292017010100930002009    
9999900000NON-METRO                                         203B S00330000275665035295004266250530150GA259GEORGIA                   STEWART        201611292017010100630002008    
1114000000AMERICUS, GA                                      203B S00630000275665035295004266250530150GA261GEORGIA                   SUMTER         201611292017010101050002008    
9999900000NON-METRO                                         203B S01000000275665035295004266250530150GA263GEORGIA                   TALBOT         201611292017010101230002013    
9999900000NON-METRO                                         203B S00640000275665035295004266250530150GA265GEORGIA                   TALIAFERRO     201611292017010101100002008    
9999900000NON-METRO                                         203B S00570000275665035295004266250530150GA267GEORGIA                   TATTNALL       201611292017010101190002008    
9999900000NON-METRO                                         203B S00400000275665035295004266250530150GA269GEORGIA                   TAYLOR         201611292017010101100002008    
9999900000NON-METRO                                         203B S00250000275665035295004266250530150GA271GEORGIA                   TELFAIR        201611292017010100830002008    
1050000000ALBANY, GA                                        203B S01430000275665035295004266250530150GA273GEORGIA                   TERRELL        201611292017010101910002008    
4562000000THOMASVILLE, GA                                   203B S01300000275665035295004266250530150GA275GEORGIA                   THOMAS         201611292017010101370002008    
4570000000TIFTON, GA                                        203B S01140000275665035295004266250530150GA277GEORGIA                   TIFT           201611292017010101580002008    
4708000000VIDALIA, GA                                       203B S00650000275665035295004266250530150GA279GEORGIA                   TOOMBS         201611292017010101170002008    
9999900000NON-METRO                                         203B S01220000275665035295004266250530150GA281GEORGIA                   TOWNS          201611292017010102110002008    
9999900000NON-METRO                                         203B S00220000275665035295004266250530150GA283GEORGIA                   TREUTLEN       201611292017010100870002008    
2930000000LAGRANGE, GA                                      203B S01210000275665035295004266250530150GA285GEORGIA                   TROUP          201611292017010101300002008    
9999900000NON-METRO                                         203B S00690000275665035295004266250530150GA287GEORGIA                   TURNER         201611292017010100850002008    
3142000000MACON, GA                                         203B S01110000275665035295004266250530150GA289GEORGIA                   TWIGGS         201611292017010101780002010    
9999900000NON-METRO                                         203B S01150000275665035295004266250530150GA291GEORGIA                   UNION          201611292017010101650002009    
4558000000THOMASTON, GA                                     203B S00450000275665035295004266250530150GA293GEORGIA                   UPSON          201611292017010101160002008    
1686000000CHATTANOOGA, TN-GA                                203B S01690000275665035295004266250530150GA295GEORGIA                   WALKER         201611292017010101690002016    
1206000000ATLANTA-SANDY SPRINGS-ROSWELL, GA                 203B H03120000358800045930005552000690000GA297GEORGIA                   WALTON         201611292017010103120002016    
4818000000WAYCROSS, GA                                      203B S00580000275665035295004266250530150GA299GEORGIA                   WARE           201611292017010101180002008    
9999900000NON-METRO                                         203B S00280000275665035295004266250530150GA301GEORGIA                   WARREN         201611292017010101430002008    
9999900000NON-METRO                                         203B S00510000275665035295004266250530150GA303GEORGIA                   WASHINGTON     201611292017010101060002008    
2770000000JESUP, GA                                         203B S00690000275665035295004266250530150GA305GEORGIA                   WAYNE          201611292017010101410002008    
9999900000NON-METRO                                         203B S00480000275665035295004266250530150GA307GEORGIA                   WEBSTER        201611292017010100710002008    
9999900000NON-METRO                                         203B S00270000275665035295004266250530150GA309GEORGIA                   WHEELER        201611292017010100860002008    
9999900000NON-METRO                                         203B S01290000275665035295004266250530150GA311GEORGIA                   WHITE          201611292017010101590002008    
1914000000DALTON, GA                                        203B S01060000275665035295004266250530150GA313GEORGIA                   WHITFIELD      201611292017010101280002008    
9999900000NON-METRO                                         203B S00340000275665035295004266250530150GA315GEORGIA                   WILCOX         201611292017010100980002008    
9999900000NON-METRO                                         203B S00570000275665035295004266250530150GA317GEORGIA                   WILKES         201611292017010101010002008    
9999900000NON-METRO                                         203B S00290000275665035295004266250530150GA319GEORGIA                   WILKINSON      201611292017010101190002008    
1050000000ALBANY, GA                                        203B S01430000275665035295004266250530150GA321GEORGIA                   WORTH          201611292017010101910002008    
9999900000NON-METRO                                         203B H02830000563500072140008720001083650GU010GUAM                      GUAM           201611292014010104900002008    
2590000000HILO, HI                                          203B H03000000368000047110005694500707700HI001HAWAII                    HAWAII         201611292014010103200002008    
4652000000URBAN HONOLULU, HI                                203B H05310000721050092305011158001386650HI003HAWAII                    HONOLULU       201611292014010106270002008    
2798000000KAHULUI-WAILUKU-LAHAINA, HI                       203B H05220000657800084210010179001265000HI005HAWAII                    KALAWAO        201611292014010105450002008    
2818000000KAPAA, HI                                         203B H05200000713000091275011033501371150HI007HAWAII                    KAUAI          201611292014010106200002008    
